:020000040000FA
:020000003328A3
:02000800002BCB
:10004000FF3FFF3FFF3FFF3FFF3FFF3FFF3FFF3FC0
:10005000FF3FFF3FFF3FFF3FFF3FFF3FFF3FFF3FB0
:10006000FF3FFF3FFF3F83160313003087008800E8
:100070008500FF30860006309F0083120313003096
:1000800087008800850086008312031310169016DF
:100090001014831603130C14831203130B178B17FE
:1000A000A201A301A401A501A601A701AE018E0131
:1000B0008F01B201B21406186328061C5D280630B1
:1000C0008A0000268A01023086196928861D662862
:1000D000B206861A6E28861E6B283215061A7328F9
:1000E000061E7028871004308A0000248A0102301E
:1000F0008A0000228A015B286430A0000000000012
:06010000A00B7E280800A0
:100400000511851605308A002408B21C2208002533
:100410008800321A88178A017C2005308A008512EC
:1004200005162508B21C2308002588008A017C20B7
:1004300005308A00051285152608B21C24080025FF
:100440008800B21C232A32188817321C88138A01AC
:100450007C2005308A00851105152708B21C250867
:0A046000002588008A017C200800B6
:10060000B000030EB1000B308F00DC308E000C10F8
:0C061000AE0A310E8300B00E300E09005F
:1008000003102E08023A031D092CAE01A20A013082
:10081000B20622080A3A031D0F2CA201A30A2308DC
:10082000063A031D152CA301A40A24080A3A031D45
:100830001B2CA401A50A2508063A031D212CA5019D
:10084000A60A26080A3A031D272CA601A70A27088C
:10085000023A031D312C2608043A031D312CA7014E
:08086000A6013219FB2E08006D
:100A00000F3982073F3406345B344F3466346D341B
:080A10007D3407347F346F349C
:100C00001010051565308A00051927088519260872
:100C1000051A2508851A24080025880020088A005E
:100C200006191C2E061D122E0519A70A8519A60ADB
:100C3000051AA50A851AA40A8618282E861C1E2EB7
:100C40000519A7038519A603051AA503851AA40388
:100C500024080A3A0319A4012508063A0319A50134
:100C60002708033A0319A7012708023A031D3D2E5E
:100C70002608043A0319A601412E26080A3A031948
:100C8000A6012408FF3A031D472E0930A4002508B9
:100C9000FF3A031D4D2E0530A5002708FF3A031D1E
:100CA000532E0230A7002708023A031D5E2E2608A5
:100CB000FF3A031D5D2E0330A600642E2608FF3A7E
:100CC000031D642E0930A60006187D2E061C662E14
:100CD000051D722E2708023A031D722E2608043CB9
:100CE000031CA6010310850D051F7D2E1014003076
:100CF000AE00A200A3007E2E0800022E10100515E3
:100D000065308A0005192D0885192C08051A2B084D
:100D1000851A2A080025880020088A0006199A2EBC
:100D2000061D902E0519AD0A8519AC0A051AAB0AE5
:100D3000851AAA0A8618A62E861C9C2E0519AD03B4
:100D40008519AC03051AAB03851AAA032A080A3AC7
:100D50000319AA012B08063A0319AB012D08033A1F
:100D60000319AD012D08023A031DBB2E2C08043ACD
:100D70000319AC01BF2E2C080A3A0319AC012A084A
:100D8000FF3A031DC52E0930AA002B08FF3A031DA8
:100D9000CB2E0530AB002D08FF3A031DD12E0230BB
:100DA000AD002D08023A031DDC2E2C08FF3A031D6E
:100DB000DB2E0330AC00E22E2C08FF3A031DE22E9E
:100DC0000930AC000618FA2E061CE42E051DF02E84
:100DD0002D08023A031DF02E2C08043C031CAC0124
:100DE0000310850D051FFA2E10140030AF00A80067
:100DF000A9000800802E321623082906031D0800CA
:100E000022082806031D080025082B06031D0800DC
:100E100024082A06031D080027082D06031D0800C4
:0C0E200026082C06031D0800871408009B
:02400E00323F3F
:00000001FF
